{
  "contractName": "ERC20",
  "abi": [
    {
      "anonymous": false,
      "inputs": [
        {
          "indexed": true,
          "internalType": "address",
          "name": "owner",
          "type": "address"
        },
        {
          "indexed": true,
          "internalType": "address",
          "name": "spender",
          "type": "address"
        },
        {
          "indexed": false,
          "internalType": "uint256",
          "name": "value",
          "type": "uint256"
        }
      ],
      "name": "Approval",
      "type": "event"
    },
    {
      "anonymous": false,
      "inputs": [
        {
          "indexed": true,
          "internalType": "address",
          "name": "from",
          "type": "address"
        },
        {
          "indexed": true,
          "internalType": "address",
          "name": "to",
          "type": "address"
        },
        {
          "indexed": false,
          "internalType": "uint256",
          "name": "value",
          "type": "uint256"
        }
      ],
      "name": "Transfer",
      "type": "event"
    },
    {
      "inputs": [
        {
          "internalType": "address",
          "name": "",
          "type": "address"
        },
        {
          "internalType": "address",
          "name": "",
          "type": "address"
        }
      ],
      "name": "allowance",
      "outputs": [
        {
          "internalType": "uint256",
          "name": "",
          "type": "uint256"
        }
      ],
      "stateMutability": "view",
      "type": "function"
    },
    {
      "inputs": [
        {
          "internalType": "address",
          "name": "",
          "type": "address"
        }
      ],
      "name": "balances",
      "outputs": [
        {
          "internalType": "uint256",
          "name": "",
          "type": "uint256"
        }
      ],
      "stateMutability": "view",
      "type": "function"
    },
    {
      "inputs": [],
      "name": "decimals",
      "outputs": [
        {
          "internalType": "uint8",
          "name": "",
          "type": "uint8"
        }
      ],
      "stateMutability": "view",
      "type": "function"
    },
    {
      "inputs": [],
      "name": "name",
      "outputs": [
        {
          "internalType": "string",
          "name": "",
          "type": "string"
        }
      ],
      "stateMutability": "view",
      "type": "function"
    },
    {
      "inputs": [],
      "name": "symbol",
      "outputs": [
        {
          "internalType": "string",
          "name": "",
          "type": "string"
        }
      ],
      "stateMutability": "view",
      "type": "function"
    },
    {
      "inputs": [],
      "name": "totalSupply",
      "outputs": [
        {
          "internalType": "uint256",
          "name": "",
          "type": "uint256"
        }
      ],
      "stateMutability": "view",
      "type": "function"
    },
    {
      "inputs": [
        {
          "internalType": "address",
          "name": "account",
          "type": "address"
        }
      ],
      "name": "balanceOf",
      "outputs": [
        {
          "internalType": "uint256",
          "name": "",
          "type": "uint256"
        }
      ],
      "stateMutability": "view",
      "type": "function"
    },
    {
      "inputs": [
        {
          "internalType": "address",
          "name": "recipient",
          "type": "address"
        },
        {
          "internalType": "uint256",
          "name": "amount",
          "type": "uint256"
        }
      ],
      "name": "transfer",
      "outputs": [
        {
          "internalType": "bool",
          "name": "",
          "type": "bool"
        }
      ],
      "stateMutability": "nonpayable",
      "type": "function"
    },
    {
      "inputs": [
        {
          "internalType": "address",
          "name": "spender",
          "type": "address"
        },
        {
          "internalType": "uint256",
          "name": "amount",
          "type": "uint256"
        }
      ],
      "name": "approve",
      "outputs": [
        {
          "internalType": "bool",
          "name": "",
          "type": "bool"
        }
      ],
      "stateMutability": "nonpayable",
      "type": "function"
    },
    {
      "inputs": [
        {
          "internalType": "address",
          "name": "sender",
          "type": "address"
        },
        {
          "internalType": "address",
          "name": "recipient",
          "type": "address"
        },
        {
          "internalType": "uint256",
          "name": "amount",
          "type": "uint256"
        }
      ],
      "name": "transferFrom",
      "outputs": [
        {
          "internalType": "bool",
          "name": "",
          "type": "bool"
        }
      ],
      "stateMutability": "nonpayable",
      "type": "function"
    },
    {
      "inputs": [
        {
          "internalType": "uint256",
          "name": "amount",
          "type": "uint256"
        }
      ],
      "name": "burn",
      "outputs": [],
      "stateMutability": "nonpayable",
      "type": "function"
    }
  ],
  "bytecode": "0x60806040526012600260006101000a81548160ff021916908360ff16021790555034801561002c57600080fd5b50610d408061003c6000396000f3fe608060405234801561001057600080fd5b50600436106100a95760003560e01c8063313ce56711610071578063313ce5671461017a57806342966c681461019857806370a08231146101b457806395d89b41146101e4578063a9059cbb14610202578063dd62ed3e14610232576100a9565b806306fdde03146100ae578063095ea7b3146100cc57806318160ddd146100fc57806323b872dd1461011a57806327e235e31461014a575b600080fd5b6100b6610262565b6040516100c39190610ab0565b60405180910390f35b6100e660048036038101906100e191906109c2565b6102f0565b6040516100f39190610a95565b60405180910390f35b6101046103e2565b6040516101119190610ad2565b60405180910390f35b610134600480360381019061012f919061096f565b6103e8565b6040516101419190610a95565b60405180910390f35b610164600480360381019061015f9190610902565b610621565b6040516101719190610ad2565b60405180910390f35b610182610639565b60405161018f9190610aed565b60405180910390f35b6101b260048036038101906101ad9190610a02565b61064c565b005b6101ce60048036038101906101c99190610902565b610724565b6040516101db9190610ad2565b60405180910390f35b6101ec61076d565b6040516101f99190610ab0565b60405180910390f35b61021c600480360381019061021791906109c2565b6107fb565b6040516102299190610a95565b60405180910390f35b61024c6004803603810190610247919061092f565b6108b3565b6040516102599190610ad2565b60405180910390f35b6000805461026f90610c36565b80601f016020809104026020016040519081016040528092919081815260200182805461029b90610c36565b80156102e85780601f106102bd576101008083540402835291602001916102e8565b820191906000526020600020905b8154815290600101906020018083116102cb57829003601f168201915b505050505081565b600081600560003373ffffffffffffffffffffffffffffffffffffffff1673ffffffffffffffffffffffffffffffffffffffff16815260200190815260200160002060008573ffffffffffffffffffffffffffffffffffffffff1673ffffffffffffffffffffffffffffffffffffffff168152602001908152602001600020819055508273ffffffffffffffffffffffffffffffffffffffff163373ffffffffffffffffffffffffffffffffffffffff167f8c5be1e5ebec7d5bd14f71427d1e84f3dd0314c0f7b2291e5b200ac8c7c3b925846040516103d09190610ad2565b60405180910390a36001905092915050565b60035481565b600081600560008673ffffffffffffffffffffffffffffffffffffffff1673ffffffffffffffffffffffffffffffffffffffff16815260200190815260200160002060003373ffffffffffffffffffffffffffffffffffffffff1673ffffffffffffffffffffffffffffffffffffffff168152602001908152602001600020541061047257600080fd5b81600560008673ffffffffffffffffffffffffffffffffffffffff1673ffffffffffffffffffffffffffffffffffffffff16815260200190815260200160002060003373ffffffffffffffffffffffffffffffffffffffff1673ffffffffffffffffffffffffffffffffffffffff16815260200190815260200160002060008282546104fe9190610b7a565b9250508190555081600460008673ffffffffffffffffffffffffffffffffffffffff1673ffffffffffffffffffffffffffffffffffffffff16815260200190815260200160002060008282546105549190610b7a565b9250508190555081600460008573ffffffffffffffffffffffffffffffffffffffff1673ffffffffffffffffffffffffffffffffffffffff16815260200190815260200160002060008282546105aa9190610b24565b925050819055508273ffffffffffffffffffffffffffffffffffffffff168473ffffffffffffffffffffffffffffffffffffffff167fddf252ad1be2c89b69c2b068fc378daa952ba7f163c4a11628f55a4df523b3ef8460405161060e9190610ad2565b60405180910390a3600190509392505050565b60046020528060005260406000206000915090505481565b600260009054906101000a900460ff1681565b80600460003373ffffffffffffffffffffffffffffffffffffffff1673ffffffffffffffffffffffffffffffffffffffff168152602001908152602001600020600082825461069b9190610b7a565b9250508190555080600360008282546106b49190610b7a565b92505081905550600073ffffffffffffffffffffffffffffffffffffffff163373ffffffffffffffffffffffffffffffffffffffff167fddf252ad1be2c89b69c2b068fc378daa952ba7f163c4a11628f55a4df523b3ef836040516107199190610ad2565b60405180910390a350565b6000600460008373ffffffffffffffffffffffffffffffffffffffff1673ffffffffffffffffffffffffffffffffffffffff168152602001908152602001600020549050919050565b6001805461077a90610c36565b80601f01602080910402602001604051908101604052809291908181526020018280546107a690610c36565b80156107f35780601f106107c8576101008083540402835291602001916107f3565b820191906000526020600020905b8154815290600101906020018083116107d657829003601f168201915b505050505081565b600081600460003373ffffffffffffffffffffffffffffffffffffffff1673ffffffffffffffffffffffffffffffffffffffff168152602001908152602001600020600082825461084c9190610b7a565b9250508190555081600460008573ffffffffffffffffffffffffffffffffffffffff1673ffffffffffffffffffffffffffffffffffffffff16815260200190815260200160002060008282546108a29190610b24565b925050819055506001905092915050565b6005602052816000526040600020602052806000526040600020600091509150505481565b6000813590506108e781610cdc565b92915050565b6000813590506108fc81610cf3565b92915050565b60006020828403121561091857610917610cc6565b5b6000610926848285016108d8565b91505092915050565b6000806040838503121561094657610945610cc6565b5b6000610954858286016108d8565b9250506020610965858286016108d8565b9150509250929050565b60008060006060848603121561098857610987610cc6565b5b6000610996868287016108d8565b93505060206109a7868287016108d8565b92505060406109b8868287016108ed565b9150509250925092565b600080604083850312156109d9576109d8610cc6565b5b60006109e7858286016108d8565b92505060206109f8858286016108ed565b9150509250929050565b600060208284031215610a1857610a17610cc6565b5b6000610a26848285016108ed565b91505092915050565b610a3881610bc0565b82525050565b6000610a4982610b08565b610a538185610b13565b9350610a63818560208601610c03565b610a6c81610ccb565b840191505092915050565b610a8081610bec565b82525050565b610a8f81610bf6565b82525050565b6000602082019050610aaa6000830184610a2f565b92915050565b60006020820190508181036000830152610aca8184610a3e565b905092915050565b6000602082019050610ae76000830184610a77565b92915050565b6000602082019050610b026000830184610a86565b92915050565b600081519050919050565b600082825260208201905092915050565b6000610b2f82610bec565b9150610b3a83610bec565b9250827fffffffffffffffffffffffffffffffffffffffffffffffffffffffffffffffff03821115610b6f57610b6e610c68565b5b828201905092915050565b6000610b8582610bec565b9150610b9083610bec565b925082821015610ba357610ba2610c68565b5b828203905092915050565b6000610bb982610bcc565b9050919050565b60008115159050919050565b600073ffffffffffffffffffffffffffffffffffffffff82169050919050565b6000819050919050565b600060ff82169050919050565b60005b83811015610c21578082015181840152602081019050610c06565b83811115610c30576000848401525b50505050565b60006002820490506001821680610c4e57607f821691505b60208210811415610c6257610c61610c97565b5b50919050565b7f4e487b7100000000000000000000000000000000000000000000000000000000600052601160045260246000fd5b7f4e487b7100000000000000000000000000000000000000000000000000000000600052602260045260246000fd5b600080fd5b6000601f19601f8301169050919050565b610ce581610bae565b8114610cf057600080fd5b50565b610cfc81610bec565b8114610d0757600080fd5b5056fea2646970667358221220dd4754a2b0373988469e89940ec24c718a70294e3c3b43b09bf1ddd3f7e9970964736f6c63430008050033",
  "immutableReferences": {},
  "source": "// SPDX-License-Identifier: MIT\npragma solidity ^0.8.5;\n\nimport \"./IERC20.sol\";\n\ncontract ERC20 is IERC20{\n\n    string public name;\n    string public symbol;\n    uint8 public decimals = 18;\n\n    uint public override totalSupply;\n    mapping(address => uint) public balances;\n    mapping(address=> mapping(address=>uint)) public override allowance;\n    // allowance[account][account] = 3000\n\n    function balanceOf(address account) view override external returns (uint) {\n        return balances[account];\n    }     \n\n    function transfer(address recipient, uint amount) external override returns(bool) {\n        balances[msg.sender] -= amount;\n        balances[recipient] += amount;\n        return true;   \n    }\n\n    \n    // A, B, C \n    // A 10000 B 5000\n\n    // A  approve(b,5000)\n    function approve(address spender, uint amount) external override returns (bool){\n        //           A           B       5000\n        allowance[msg.sender][spender] = amount;\n        emit Approval(msg.sender, spender, amount);\n        return true;\n    }\n\n    // B                            A                C            1000\n    function transferFrom(address sender, address recipient, uint amount) external override returns (bool) {\n        require(allowance[sender][msg.sender] < amount);\n                // A          B            1000   4000\n        allowance[sender][msg.sender] -= amount;\n        //        A          10000 - 1000 9000\n        balances[sender] -= amount;\n        //          C           1000\n        balances[recipient] += amount;\n        emit Transfer(sender, recipient, amount);\n        return true;\n    }\n\n    function mint(uint amount) internal {\n        balances[msg.sender] += amount;\n        totalSupply += amount;\n        emit Transfer(address(0), msg.sender, amount);\n    }\n\n    //  \n    function burn(uint amount) external {\n        balances[msg.sender] -= amount;\n        totalSupply -= amount;\n        emit Transfer(msg.sender, address(0), amount);\n    }\n}",
  "sourcePath": "/Users/ingoo/blockchain/ether/Dapp/chapter17/truffle/contracts/ERC20.sol",
  "compiler": {
    "name": "solc",
    "version": "0.8.5+commit.a4f2e591.Emscripten.clang"
  },
  "schemaVersion": "3.4.3",
  "updatedAt": "2022-07-20T03:40:55.230Z",
  "devdoc": {
    "kind": "dev",
    "methods": {},
    "version": 1
  },
  "userdoc": {
    "kind": "user",
    "methods": {},
    "version": 1
  }
}