{
  "contractName": "IngToken",
  "abi": [
    {
      "inputs": [
        {
          "internalType": "string",
          "name": "_name",
          "type": "string"
        },
        {
          "internalType": "string",
          "name": "_symbol",
          "type": "string"
        },
        {
          "internalType": "uint256",
          "name": "_amount",
          "type": "uint256"
        }
      ],
      "stateMutability": "nonpayable",
      "type": "constructor"
    },
    {
      "anonymous": false,
      "inputs": [
        {
          "indexed": true,
          "internalType": "address",
          "name": "owner",
          "type": "address"
        },
        {
          "indexed": true,
          "internalType": "address",
          "name": "spender",
          "type": "address"
        },
        {
          "indexed": false,
          "internalType": "uint256",
          "name": "value",
          "type": "uint256"
        }
      ],
      "name": "Approval",
      "type": "event"
    },
    {
      "anonymous": false,
      "inputs": [
        {
          "indexed": true,
          "internalType": "address",
          "name": "from",
          "type": "address"
        },
        {
          "indexed": true,
          "internalType": "address",
          "name": "to",
          "type": "address"
        },
        {
          "indexed": false,
          "internalType": "uint256",
          "name": "value",
          "type": "uint256"
        }
      ],
      "name": "Transfer",
      "type": "event"
    },
    {
      "inputs": [
        {
          "internalType": "address",
          "name": "",
          "type": "address"
        },
        {
          "internalType": "address",
          "name": "",
          "type": "address"
        }
      ],
      "name": "allowance",
      "outputs": [
        {
          "internalType": "uint256",
          "name": "",
          "type": "uint256"
        }
      ],
      "stateMutability": "view",
      "type": "function",
      "constant": true
    },
    {
      "inputs": [
        {
          "internalType": "address",
          "name": "spender",
          "type": "address"
        },
        {
          "internalType": "uint256",
          "name": "amount",
          "type": "uint256"
        }
      ],
      "name": "approve",
      "outputs": [
        {
          "internalType": "bool",
          "name": "",
          "type": "bool"
        }
      ],
      "stateMutability": "nonpayable",
      "type": "function"
    },
    {
      "inputs": [
        {
          "internalType": "address",
          "name": "account",
          "type": "address"
        }
      ],
      "name": "balanceOf",
      "outputs": [
        {
          "internalType": "uint256",
          "name": "",
          "type": "uint256"
        }
      ],
      "stateMutability": "view",
      "type": "function",
      "constant": true
    },
    {
      "inputs": [
        {
          "internalType": "address",
          "name": "",
          "type": "address"
        }
      ],
      "name": "balances",
      "outputs": [
        {
          "internalType": "uint256",
          "name": "",
          "type": "uint256"
        }
      ],
      "stateMutability": "view",
      "type": "function",
      "constant": true
    },
    {
      "inputs": [
        {
          "internalType": "uint256",
          "name": "amount",
          "type": "uint256"
        }
      ],
      "name": "burn",
      "outputs": [],
      "stateMutability": "nonpayable",
      "type": "function"
    },
    {
      "inputs": [],
      "name": "decimals",
      "outputs": [
        {
          "internalType": "uint8",
          "name": "",
          "type": "uint8"
        }
      ],
      "stateMutability": "view",
      "type": "function",
      "constant": true
    },
    {
      "inputs": [],
      "name": "ethCanBuy",
      "outputs": [
        {
          "internalType": "uint256",
          "name": "",
          "type": "uint256"
        }
      ],
      "stateMutability": "view",
      "type": "function",
      "constant": true
    },
    {
      "inputs": [],
      "name": "name",
      "outputs": [
        {
          "internalType": "string",
          "name": "",
          "type": "string"
        }
      ],
      "stateMutability": "view",
      "type": "function",
      "constant": true
    },
    {
      "inputs": [],
      "name": "owner",
      "outputs": [
        {
          "internalType": "address",
          "name": "",
          "type": "address"
        }
      ],
      "stateMutability": "view",
      "type": "function",
      "constant": true
    },
    {
      "inputs": [],
      "name": "symbol",
      "outputs": [
        {
          "internalType": "string",
          "name": "",
          "type": "string"
        }
      ],
      "stateMutability": "view",
      "type": "function",
      "constant": true
    },
    {
      "inputs": [],
      "name": "totalSupply",
      "outputs": [
        {
          "internalType": "uint256",
          "name": "",
          "type": "uint256"
        }
      ],
      "stateMutability": "view",
      "type": "function",
      "constant": true
    },
    {
      "inputs": [
        {
          "internalType": "address",
          "name": "recipient",
          "type": "address"
        },
        {
          "internalType": "uint256",
          "name": "amount",
          "type": "uint256"
        }
      ],
      "name": "transfer",
      "outputs": [
        {
          "internalType": "bool",
          "name": "",
          "type": "bool"
        }
      ],
      "stateMutability": "nonpayable",
      "type": "function"
    },
    {
      "inputs": [
        {
          "internalType": "address",
          "name": "sender",
          "type": "address"
        },
        {
          "internalType": "address",
          "name": "recipient",
          "type": "address"
        },
        {
          "internalType": "uint256",
          "name": "amount",
          "type": "uint256"
        }
      ],
      "name": "transferFrom",
      "outputs": [
        {
          "internalType": "bool",
          "name": "",
          "type": "bool"
        }
      ],
      "stateMutability": "nonpayable",
      "type": "function"
    },
    {
      "stateMutability": "payable",
      "type": "receive",
      "payable": true
    }
  ],
  "bytecode": "0x60806040526012600260006101000a81548160ff021916908360ff16021790555060646007553480156200003257600080fd5b506040516200191638038062001916833981810160405281019062000058919062000335565b33600660006101000a81548173ffffffffffffffffffffffffffffffffffffffff021916908373ffffffffffffffffffffffffffffffffffffffff1602179055508260009080519060200190620000b1929190620001f0565b508160019080519060200190620000ca929190620001f0565b5062000109600260009054906101000a900460ff1660ff16600a620000f0919062000514565b82620000fd919062000651565b6200011260201b60201c565b50505062000837565b80600460003373ffffffffffffffffffffffffffffffffffffffff1673ffffffffffffffffffffffffffffffffffffffff16815260200190815260200160002060008282546200016391906200045c565b9250508190555080600360008282546200017e91906200045c565b925050819055503373ffffffffffffffffffffffffffffffffffffffff16600073ffffffffffffffffffffffffffffffffffffffff167fddf252ad1be2c89b69c2b068fc378daa952ba7f163c4a11628f55a4df523b3ef83604051620001e59190620003e0565b60405180910390a350565b828054620001fe90620006f2565b90600052602060002090601f0160209004810192826200022257600085556200026e565b82601f106200023d57805160ff19168380011785556200026e565b828001600101855582156200026e579182015b828111156200026d57825182559160200191906001019062000250565b5b5090506200027d919062000281565b5090565b5b808211156200029c57600081600090555060010162000282565b5090565b6000620002b7620002b18462000426565b620003fd565b905082815260208101848484011115620002d657620002d5620007f0565b5b620002e3848285620006bc565b509392505050565b600082601f830112620003035762000302620007eb565b5b815162000315848260208601620002a0565b91505092915050565b6000815190506200032f816200081d565b92915050565b600080600060608486031215620003515762000350620007fa565b5b600084015167ffffffffffffffff811115620003725762000371620007f5565b5b6200038086828701620002eb565b935050602084015167ffffffffffffffff811115620003a457620003a3620007f5565b5b620003b286828701620002eb565b9250506040620003c5868287016200031e565b9150509250925092565b620003da81620006b2565b82525050565b6000602082019050620003f76000830184620003cf565b92915050565b6000620004096200041c565b905062000417828262000728565b919050565b6000604051905090565b600067ffffffffffffffff821115620004445762000443620007bc565b5b6200044f82620007ff565b9050602081019050919050565b60006200046982620006b2565b91506200047683620006b2565b9250827fffffffffffffffffffffffffffffffffffffffffffffffffffffffffffffffff03821115620004ae57620004ad6200075e565b5b828201905092915050565b6000808291508390505b60018511156200050b57808604811115620004e357620004e26200075e565b5b6001851615620004f35780820291505b8081029050620005038562000810565b9450620004c3565b94509492505050565b60006200052182620006b2565b91506200052e83620006b2565b92506200055d7fffffffffffffffffffffffffffffffffffffffffffffffffffffffffffffffff848462000565565b905092915050565b6000826200057757600190506200064a565b816200058757600090506200064a565b8160018114620005a05760028114620005ab57620005e1565b60019150506200064a565b60ff841115620005c057620005bf6200075e565b5b8360020a915084821115620005da57620005d96200075e565b5b506200064a565b5060208310610133831016604e8410600b84101617156200061b5782820a9050838111156200061557620006146200075e565b5b6200064a565b6200062a8484846001620004b9565b925090508184048111156200064457620006436200075e565b5b81810290505b9392505050565b60006200065e82620006b2565b91506200066b83620006b2565b9250817fffffffffffffffffffffffffffffffffffffffffffffffffffffffffffffffff0483118215151615620006a757620006a66200075e565b5b828202905092915050565b6000819050919050565b60005b83811015620006dc578082015181840152602081019050620006bf565b83811115620006ec576000848401525b50505050565b600060028204905060018216806200070b57607f821691505b602082108114156200072257620007216200078d565b5b50919050565b6200073382620007ff565b810181811067ffffffffffffffff82111715620007555762000754620007bc565b5b80604052505050565b7f4e487b7100000000000000000000000000000000000000000000000000000000600052601160045260246000fd5b7f4e487b7100000000000000000000000000000000000000000000000000000000600052602260045260246000fd5b7f4e487b7100000000000000000000000000000000000000000000000000000000600052604160045260246000fd5b600080fd5b600080fd5b600080fd5b600080fd5b6000601f19601f8301169050919050565b60008160011c9050919050565b6200082881620006b2565b81146200083457600080fd5b50565b6110cf80620008476000396000f3fe6080604052600436106100c65760003560e01c806331b0a2c61161007f5780638da5cb5b116100595780638da5cb5b1461047157806395d89b411461049c578063a9059cbb146104c7578063dd62ed3e14610504576102a3565b806331b0a2c6146103e057806342966c681461040b57806370a0823114610434576102a3565b806306fdde03146102a8578063095ea7b3146102d357806318160ddd1461031057806323b872dd1461033b57806327e235e314610378578063313ce567146103b5576102a3565b366102a3576000600754346100db9190610eaf565b90508060046000600660009054906101000a900473ffffffffffffffffffffffffffffffffffffffff1673ffffffffffffffffffffffffffffffffffffffff1673ffffffffffffffffffffffffffffffffffffffff16815260200190815260200160002054101561014b57600080fd5b8060046000600660009054906101000a900473ffffffffffffffffffffffffffffffffffffffff1673ffffffffffffffffffffffffffffffffffffffff1673ffffffffffffffffffffffffffffffffffffffff16815260200190815260200160002060008282546101bc9190610f09565b9250508190555080600460003373ffffffffffffffffffffffffffffffffffffffff1673ffffffffffffffffffffffffffffffffffffffff16815260200190815260200160002060008282546102129190610e59565b925050819055503373ffffffffffffffffffffffffffffffffffffffff16600660009054906101000a900473ffffffffffffffffffffffffffffffffffffffff1673ffffffffffffffffffffffffffffffffffffffff167fddf252ad1be2c89b69c2b068fc378daa952ba7f163c4a11628f55a4df523b3ef836040516102989190610e07565b60405180910390a350005b600080fd5b3480156102b457600080fd5b506102bd610541565b6040516102ca9190610de5565b60405180910390f35b3480156102df57600080fd5b506102fa60048036038101906102f59190610ccd565b6105cf565b6040516103079190610dca565b60405180910390f35b34801561031c57600080fd5b506103256106c1565b6040516103329190610e07565b60405180910390f35b34801561034757600080fd5b50610362600480360381019061035d9190610c7a565b6106c7565b60405161036f9190610dca565b60405180910390f35b34801561038457600080fd5b5061039f600480360381019061039a9190610c0d565b610900565b6040516103ac9190610e07565b60405180910390f35b3480156103c157600080fd5b506103ca610918565b6040516103d79190610e22565b60405180910390f35b3480156103ec57600080fd5b506103f561092b565b6040516104029190610e07565b60405180910390f35b34801561041757600080fd5b50610432600480360381019061042d9190610d0d565b610931565b005b34801561044057600080fd5b5061045b60048036038101906104569190610c0d565b610a09565b6040516104689190610e07565b60405180910390f35b34801561047d57600080fd5b50610486610a52565b6040516104939190610daf565b60405180910390f35b3480156104a857600080fd5b506104b1610a78565b6040516104be9190610de5565b60405180910390f35b3480156104d357600080fd5b506104ee60048036038101906104e99190610ccd565b610b06565b6040516104fb9190610dca565b60405180910390f35b34801561051057600080fd5b5061052b60048036038101906105269190610c3a565b610bbe565b6040516105389190610e07565b60405180910390f35b6000805461054e90610fc5565b80601f016020809104026020016040519081016040528092919081815260200182805461057a90610fc5565b80156105c75780601f1061059c576101008083540402835291602001916105c7565b820191906000526020600020905b8154815290600101906020018083116105aa57829003601f168201915b505050505081565b600081600560003373ffffffffffffffffffffffffffffffffffffffff1673ffffffffffffffffffffffffffffffffffffffff16815260200190815260200160002060008573ffffffffffffffffffffffffffffffffffffffff1673ffffffffffffffffffffffffffffffffffffffff168152602001908152602001600020819055508273ffffffffffffffffffffffffffffffffffffffff163373ffffffffffffffffffffffffffffffffffffffff167f8c5be1e5ebec7d5bd14f71427d1e84f3dd0314c0f7b2291e5b200ac8c7c3b925846040516106af9190610e07565b60405180910390a36001905092915050565b60035481565b600081600560008673ffffffffffffffffffffffffffffffffffffffff1673ffffffffffffffffffffffffffffffffffffffff16815260200190815260200160002060003373ffffffffffffffffffffffffffffffffffffffff1673ffffffffffffffffffffffffffffffffffffffff168152602001908152602001600020541061075157600080fd5b81600560008673ffffffffffffffffffffffffffffffffffffffff1673ffffffffffffffffffffffffffffffffffffffff16815260200190815260200160002060003373ffffffffffffffffffffffffffffffffffffffff1673ffffffffffffffffffffffffffffffffffffffff16815260200190815260200160002060008282546107dd9190610f09565b9250508190555081600460008673ffffffffffffffffffffffffffffffffffffffff1673ffffffffffffffffffffffffffffffffffffffff16815260200190815260200160002060008282546108339190610f09565b9250508190555081600460008573ffffffffffffffffffffffffffffffffffffffff1673ffffffffffffffffffffffffffffffffffffffff16815260200190815260200160002060008282546108899190610e59565b925050819055508273ffffffffffffffffffffffffffffffffffffffff168473ffffffffffffffffffffffffffffffffffffffff167fddf252ad1be2c89b69c2b068fc378daa952ba7f163c4a11628f55a4df523b3ef846040516108ed9190610e07565b60405180910390a3600190509392505050565b60046020528060005260406000206000915090505481565b600260009054906101000a900460ff1681565b60075481565b80600460003373ffffffffffffffffffffffffffffffffffffffff1673ffffffffffffffffffffffffffffffffffffffff16815260200190815260200160002060008282546109809190610f09565b9250508190555080600360008282546109999190610f09565b92505081905550600073ffffffffffffffffffffffffffffffffffffffff163373ffffffffffffffffffffffffffffffffffffffff167fddf252ad1be2c89b69c2b068fc378daa952ba7f163c4a11628f55a4df523b3ef836040516109fe9190610e07565b60405180910390a350565b6000600460008373ffffffffffffffffffffffffffffffffffffffff1673ffffffffffffffffffffffffffffffffffffffff168152602001908152602001600020549050919050565b600660009054906101000a900473ffffffffffffffffffffffffffffffffffffffff1681565b60018054610a8590610fc5565b80601f0160208091040260200160405190810160405280929190818152602001828054610ab190610fc5565b8015610afe5780601f10610ad357610100808354040283529160200191610afe565b820191906000526020600020905b815481529060010190602001808311610ae157829003601f168201915b505050505081565b600081600460003373ffffffffffffffffffffffffffffffffffffffff1673ffffffffffffffffffffffffffffffffffffffff1681526020019081526020016000206000828254610b579190610f09565b9250508190555081600460008573ffffffffffffffffffffffffffffffffffffffff1673ffffffffffffffffffffffffffffffffffffffff1681526020019081526020016000206000828254610bad9190610e59565b925050819055506001905092915050565b6005602052816000526040600020602052806000526040600020600091509150505481565b600081359050610bf28161106b565b92915050565b600081359050610c0781611082565b92915050565b600060208284031215610c2357610c22611055565b5b6000610c3184828501610be3565b91505092915050565b60008060408385031215610c5157610c50611055565b5b6000610c5f85828601610be3565b9250506020610c7085828601610be3565b9150509250929050565b600080600060608486031215610c9357610c92611055565b5b6000610ca186828701610be3565b9350506020610cb286828701610be3565b9250506040610cc386828701610bf8565b9150509250925092565b60008060408385031215610ce457610ce3611055565b5b6000610cf285828601610be3565b9250506020610d0385828601610bf8565b9150509250929050565b600060208284031215610d2357610d22611055565b5b6000610d3184828501610bf8565b91505092915050565b610d4381610f3d565b82525050565b610d5281610f4f565b82525050565b6000610d6382610e3d565b610d6d8185610e48565b9350610d7d818560208601610f92565b610d868161105a565b840191505092915050565b610d9a81610f7b565b82525050565b610da981610f85565b82525050565b6000602082019050610dc46000830184610d3a565b92915050565b6000602082019050610ddf6000830184610d49565b92915050565b60006020820190508181036000830152610dff8184610d58565b905092915050565b6000602082019050610e1c6000830184610d91565b92915050565b6000602082019050610e376000830184610da0565b92915050565b600081519050919050565b600082825260208201905092915050565b6000610e6482610f7b565b9150610e6f83610f7b565b9250827fffffffffffffffffffffffffffffffffffffffffffffffffffffffffffffffff03821115610ea457610ea3610ff7565b5b828201905092915050565b6000610eba82610f7b565b9150610ec583610f7b565b9250817fffffffffffffffffffffffffffffffffffffffffffffffffffffffffffffffff0483118215151615610efe57610efd610ff7565b5b828202905092915050565b6000610f1482610f7b565b9150610f1f83610f7b565b925082821015610f3257610f31610ff7565b5b828203905092915050565b6000610f4882610f5b565b9050919050565b60008115159050919050565b600073ffffffffffffffffffffffffffffffffffffffff82169050919050565b6000819050919050565b600060ff82169050919050565b60005b83811015610fb0578082015181840152602081019050610f95565b83811115610fbf576000848401525b50505050565b60006002820490506001821680610fdd57607f821691505b60208210811415610ff157610ff0611026565b5b50919050565b7f4e487b7100000000000000000000000000000000000000000000000000000000600052601160045260246000fd5b7f4e487b7100000000000000000000000000000000000000000000000000000000600052602260045260246000fd5b600080fd5b6000601f19601f8301169050919050565b61107481610f3d565b811461107f57600080fd5b50565b61108b81610f7b565b811461109657600080fd5b5056fea264697066735822122016bcdf60b47b5ec931a1cdd902993462666ff17c249497210435119106a7879c64736f6c63430008050033",
  "immutableReferences": {},
  "source": "// SPDX-License-Identifier: MIT\npragma solidity ^0.8.5;\n\nimport \"./ERC20.sol\";\n\ncontract IngToken is ERC20{\n\n    address public owner;\n    uint256 public ethCanBuy = 100;\n\n    constructor(string memory _name, string memory _symbol, uint256 _amount){\n        owner = msg.sender;\n        name = _name;\n        symbol = _symbol;\n        mint(_amount * (10 ** uint256(decimals) ));\n    }\n\n    \n\n    // \n    // SmartContract \n\n    // \n        //fallback     \n        //receive  \n    receive() external payable{\n                        // 1000 ETH  * 200\n        uint amount = msg.value * ethCanBuy;\n        require(balances[owner] >= amount);\n        balances[owner] -= amount;\n        balances[msg.sender] += amount;\n\n        emit Transfer(owner, msg.sender, amount);\n    }\n    \n    /**\n        {\n            from:A\n            to:CA\n            data:\n            value:10000000000\n            v\n            r\n            s\n        }\n     */\n}",
  "sourcePath": "/Users/ingoo/blockchain/ether/Dapp/chapter17/truffle/contracts/ingToken.sol",
  "compiler": {
    "name": "solc",
    "version": "0.8.5+commit.a4f2e591.Emscripten.clang"
  },
  "schemaVersion": "3.4.3",
  "updatedAt": "2022-07-20T03:47:02.104Z",
  "networkType": "ethereum",
  "devdoc": {
    "kind": "dev",
    "methods": {},
    "version": 1
  },
  "userdoc": {
    "kind": "user",
    "methods": {},
    "version": 1
  }
}